{
  "_format": "hh-sol-artifact-1",
  "contractName": "NFTMarketplace",
  "sourceName": "contracts/NFTMarketplace.sol",
  "abi": [
    {
      "inputs": [],
      "stateMutability": "nonpayable",
      "type": "constructor"
    },
    {
      "anonymous": false,
      "inputs": [
        {
          "indexed": true,
          "internalType": "address",
          "name": "owner",
          "type": "address"
        },
        {
          "indexed": true,
          "internalType": "address",
          "name": "approved",
          "type": "address"
        },
        {
          "indexed": true,
          "internalType": "uint256",
          "name": "tokenId",
          "type": "uint256"
        }
      ],
      "name": "Approval",
      "type": "event"
    },
    {
      "anonymous": false,
      "inputs": [
        {
          "indexed": true,
          "internalType": "address",
          "name": "owner",
          "type": "address"
        },
        {
          "indexed": true,
          "internalType": "address",
          "name": "operator",
          "type": "address"
        },
        {
          "indexed": false,
          "internalType": "bool",
          "name": "approved",
          "type": "bool"
        }
      ],
      "name": "ApprovalForAll",
      "type": "event"
    },
    {
      "anonymous": false,
      "inputs": [
        {
          "indexed": true,
          "internalType": "uint256",
          "name": "tokenId",
          "type": "uint256"
        },
        {
          "indexed": false,
          "internalType": "address",
          "name": "seller",
          "type": "address"
        },
        {
          "indexed": false,
          "internalType": "address",
          "name": "owner",
          "type": "address"
        },
        {
          "indexed": false,
          "internalType": "uint256",
          "name": "price",
          "type": "uint256"
        },
        {
          "indexed": false,
          "internalType": "bool",
          "name": "isSold",
          "type": "bool"
        }
      ],
      "name": "MarketItemCreated",
      "type": "event"
    },
    {
      "anonymous": false,
      "inputs": [
        {
          "indexed": true,
          "internalType": "address",
          "name": "from",
          "type": "address"
        },
        {
          "indexed": true,
          "internalType": "address",
          "name": "to",
          "type": "address"
        },
        {
          "indexed": true,
          "internalType": "uint256",
          "name": "tokenId",
          "type": "uint256"
        }
      ],
      "name": "Transfer",
      "type": "event"
    },
    {
      "inputs": [
        {
          "internalType": "address",
          "name": "to",
          "type": "address"
        },
        {
          "internalType": "uint256",
          "name": "tokenId",
          "type": "uint256"
        }
      ],
      "name": "approve",
      "outputs": [],
      "stateMutability": "nonpayable",
      "type": "function"
    },
    {
      "inputs": [
        {
          "internalType": "address",
          "name": "owner",
          "type": "address"
        }
      ],
      "name": "balanceOf",
      "outputs": [
        {
          "internalType": "uint256",
          "name": "",
          "type": "uint256"
        }
      ],
      "stateMutability": "view",
      "type": "function"
    },
    {
      "inputs": [
        {
          "internalType": "uint256",
          "name": "tokenId",
          "type": "uint256"
        }
      ],
      "name": "createMarketSale",
      "outputs": [],
      "stateMutability": "payable",
      "type": "function"
    },
    {
      "inputs": [
        {
          "internalType": "string",
          "name": "tokenURI",
          "type": "string"
        },
        {
          "internalType": "uint256",
          "name": "price",
          "type": "uint256"
        }
      ],
      "name": "createToken",
      "outputs": [
        {
          "internalType": "uint256",
          "name": "",
          "type": "uint256"
        }
      ],
      "stateMutability": "payable",
      "type": "function"
    },
    {
      "inputs": [],
      "name": "fetchItemsListed",
      "outputs": [
        {
          "components": [
            {
              "internalType": "uint256",
              "name": "tokenId",
              "type": "uint256"
            },
            {
              "internalType": "address payable",
              "name": "seller",
              "type": "address"
            },
            {
              "internalType": "address payable",
              "name": "owner",
              "type": "address"
            },
            {
              "internalType": "uint256",
              "name": "price",
              "type": "uint256"
            },
            {
              "internalType": "bool",
              "name": "isSold",
              "type": "bool"
            }
          ],
          "internalType": "struct NFTMarketplace.MarketItem[]",
          "name": "",
          "type": "tuple[]"
        }
      ],
      "stateMutability": "view",
      "type": "function"
    },
    {
      "inputs": [],
      "name": "fetchMarketItems",
      "outputs": [
        {
          "components": [
            {
              "internalType": "uint256",
              "name": "tokenId",
              "type": "uint256"
            },
            {
              "internalType": "address payable",
              "name": "seller",
              "type": "address"
            },
            {
              "internalType": "address payable",
              "name": "owner",
              "type": "address"
            },
            {
              "internalType": "uint256",
              "name": "price",
              "type": "uint256"
            },
            {
              "internalType": "bool",
              "name": "isSold",
              "type": "bool"
            }
          ],
          "internalType": "struct NFTMarketplace.MarketItem[]",
          "name": "",
          "type": "tuple[]"
        }
      ],
      "stateMutability": "view",
      "type": "function"
    },
    {
      "inputs": [],
      "name": "fetchMyNFTs",
      "outputs": [
        {
          "components": [
            {
              "internalType": "uint256",
              "name": "tokenId",
              "type": "uint256"
            },
            {
              "internalType": "address payable",
              "name": "seller",
              "type": "address"
            },
            {
              "internalType": "address payable",
              "name": "owner",
              "type": "address"
            },
            {
              "internalType": "uint256",
              "name": "price",
              "type": "uint256"
            },
            {
              "internalType": "bool",
              "name": "isSold",
              "type": "bool"
            }
          ],
          "internalType": "struct NFTMarketplace.MarketItem[]",
          "name": "",
          "type": "tuple[]"
        }
      ],
      "stateMutability": "view",
      "type": "function"
    },
    {
      "inputs": [
        {
          "internalType": "uint256",
          "name": "tokenId",
          "type": "uint256"
        }
      ],
      "name": "getApproved",
      "outputs": [
        {
          "internalType": "address",
          "name": "",
          "type": "address"
        }
      ],
      "stateMutability": "view",
      "type": "function"
    },
    {
      "inputs": [],
      "name": "getListingPrice",
      "outputs": [
        {
          "internalType": "uint256",
          "name": "",
          "type": "uint256"
        }
      ],
      "stateMutability": "view",
      "type": "function"
    },
    {
      "inputs": [
        {
          "internalType": "uint256",
          "name": "",
          "type": "uint256"
        }
      ],
      "name": "idToMarketItem",
      "outputs": [
        {
          "internalType": "uint256",
          "name": "tokenId",
          "type": "uint256"
        },
        {
          "internalType": "address payable",
          "name": "seller",
          "type": "address"
        },
        {
          "internalType": "address payable",
          "name": "owner",
          "type": "address"
        },
        {
          "internalType": "uint256",
          "name": "price",
          "type": "uint256"
        },
        {
          "internalType": "bool",
          "name": "isSold",
          "type": "bool"
        }
      ],
      "stateMutability": "view",
      "type": "function"
    },
    {
      "inputs": [
        {
          "internalType": "address",
          "name": "owner",
          "type": "address"
        },
        {
          "internalType": "address",
          "name": "operator",
          "type": "address"
        }
      ],
      "name": "isApprovedForAll",
      "outputs": [
        {
          "internalType": "bool",
          "name": "",
          "type": "bool"
        }
      ],
      "stateMutability": "view",
      "type": "function"
    },
    {
      "inputs": [],
      "name": "name",
      "outputs": [
        {
          "internalType": "string",
          "name": "",
          "type": "string"
        }
      ],
      "stateMutability": "view",
      "type": "function"
    },
    {
      "inputs": [
        {
          "internalType": "uint256",
          "name": "tokenId",
          "type": "uint256"
        }
      ],
      "name": "ownerOf",
      "outputs": [
        {
          "internalType": "address",
          "name": "",
          "type": "address"
        }
      ],
      "stateMutability": "view",
      "type": "function"
    },
    {
      "inputs": [
        {
          "internalType": "uint256",
          "name": "tokenId",
          "type": "uint256"
        },
        {
          "internalType": "uint256",
          "name": "price",
          "type": "uint256"
        }
      ],
      "name": "resellToken",
      "outputs": [],
      "stateMutability": "payable",
      "type": "function"
    },
    {
      "inputs": [
        {
          "internalType": "address",
          "name": "from",
          "type": "address"
        },
        {
          "internalType": "address",
          "name": "to",
          "type": "address"
        },
        {
          "internalType": "uint256",
          "name": "tokenId",
          "type": "uint256"
        }
      ],
      "name": "safeTransferFrom",
      "outputs": [],
      "stateMutability": "nonpayable",
      "type": "function"
    },
    {
      "inputs": [
        {
          "internalType": "address",
          "name": "from",
          "type": "address"
        },
        {
          "internalType": "address",
          "name": "to",
          "type": "address"
        },
        {
          "internalType": "uint256",
          "name": "tokenId",
          "type": "uint256"
        },
        {
          "internalType": "bytes",
          "name": "_data",
          "type": "bytes"
        }
      ],
      "name": "safeTransferFrom",
      "outputs": [],
      "stateMutability": "nonpayable",
      "type": "function"
    },
    {
      "inputs": [
        {
          "internalType": "address",
          "name": "operator",
          "type": "address"
        },
        {
          "internalType": "bool",
          "name": "approved",
          "type": "bool"
        }
      ],
      "name": "setApprovalForAll",
      "outputs": [],
      "stateMutability": "nonpayable",
      "type": "function"
    },
    {
      "inputs": [
        {
          "internalType": "bytes4",
          "name": "interfaceId",
          "type": "bytes4"
        }
      ],
      "name": "supportsInterface",
      "outputs": [
        {
          "internalType": "bool",
          "name": "",
          "type": "bool"
        }
      ],
      "stateMutability": "view",
      "type": "function"
    },
    {
      "inputs": [],
      "name": "symbol",
      "outputs": [
        {
          "internalType": "string",
          "name": "",
          "type": "string"
        }
      ],
      "stateMutability": "view",
      "type": "function"
    },
    {
      "inputs": [
        {
          "internalType": "uint256",
          "name": "tokenId",
          "type": "uint256"
        }
      ],
      "name": "tokenURI",
      "outputs": [
        {
          "internalType": "string",
          "name": "",
          "type": "string"
        }
      ],
      "stateMutability": "view",
      "type": "function"
    },
    {
      "inputs": [
        {
          "internalType": "address",
          "name": "from",
          "type": "address"
        },
        {
          "internalType": "address",
          "name": "to",
          "type": "address"
        },
        {
          "internalType": "uint256",
          "name": "tokenId",
          "type": "uint256"
        }
      ],
      "name": "transferFrom",
      "outputs": [],
      "stateMutability": "nonpayable",
      "type": "function"
    },
    {
      "inputs": [
        {
          "internalType": "uint256",
          "name": "_listingPrice",
          "type": "uint256"
        }
      ],
      "name": "updateListigPrice",
      "outputs": [],
      "stateMutability": "payable",
      "type": "function"
    }
  ],
  "bytecode": "0x60806040526658d15e176280006009553480156200001c57600080fd5b506040518060400160405280601081526020017f4d657461766572736520546f6b656e73000000000000000000000000000000008152506040518060400160405280600481526020017f4d455454000000000000000000000000000000000000000000000000000000008152508160009080519060200190620000a192919062000104565b508060019080519060200190620000ba92919062000104565b50505033600a60006101000a81548173ffffffffffffffffffffffffffffffffffffffff021916908373ffffffffffffffffffffffffffffffffffffffff16021790555062000219565b8280546200011290620001b4565b90600052602060002090601f01602090048101928262000136576000855562000182565b82601f106200015157805160ff191683800117855562000182565b8280016001018555821562000182579182015b828111156200018157825182559160200191906001019062000164565b5b50905062000191919062000195565b5090565b5b80821115620001b057600081600090555060010162000196565b5090565b60006002820490506001821680620001cd57607f821691505b60208210811415620001e457620001e3620001ea565b5b50919050565b7f4e487b7100000000000000000000000000000000000000000000000000000000600052602260045260246000fd5b61446b80620002296000396000f3fe6080604052600436106101355760003560e01c806370a08231116100ab578063b88d4fde1161006f578063b88d4fde14610420578063be9af53614610449578063c87b56dd14610465578063e219fc75146104a2578063e61a70c0146104be578063e985e9c5146104ff57610135565b806370a082311461034357806372b3b6201461038057806395d89b41146103b0578063a22cb465146103db578063ac1b33281461040457610135565b806312e85585116100fd57806312e8558514610233578063202e37401461025e57806323b872dd1461028957806342842e0e146102b257806345f8fa80146102db5780636352211e1461030657610135565b806301ffc9a71461013a57806306fdde0314610177578063081812fc146101a2578063095ea7b3146101df5780630f08efe014610208575b600080fd5b34801561014657600080fd5b50610161600480360381019061015c9190612f6f565b61053c565b60405161016e9190613658565b60405180910390f35b34801561018357600080fd5b5061018c61061e565b6040516101999190613673565b60405180910390f35b3480156101ae57600080fd5b506101c960048036038101906101c49190613015565b6106b0565b6040516101d6919061358a565b60405180910390f35b3480156101eb57600080fd5b5061020660048036038101906102019190612f33565b610735565b005b34801561021457600080fd5b5061021d61084d565b60405161022a9190613636565b60405180910390f35b34801561023f57600080fd5b50610248610af9565b6040516102559190613955565b60405180910390f35b34801561026a57600080fd5b50610273610b03565b6040516102809190613636565b60405180910390f35b34801561029557600080fd5b506102b060048036038101906102ab9190612e2d565b610e3d565b005b3480156102be57600080fd5b506102d960048036038101906102d49190612e2d565b610e9d565b005b3480156102e757600080fd5b506102f0610ebd565b6040516102fd9190613636565b60405180910390f35b34801561031257600080fd5b5061032d60048036038101906103289190613015565b6111f7565b60405161033a919061358a565b60405180910390f35b34801561034f57600080fd5b5061036a60048036038101906103659190612dc8565b6112a9565b6040516103779190613955565b60405180910390f35b61039a60048036038101906103959190612fc1565b611361565b6040516103a79190613955565b60405180910390f35b3480156103bc57600080fd5b506103c56113a3565b6040516103d29190613673565b60405180910390f35b3480156103e757600080fd5b5061040260048036038101906103fd9190612ef7565b611435565b005b61041e60048036038101906104199190613015565b61144b565b005b34801561042c57600080fd5b5061044760048036038101906104429190612e7c565b6114e5565b005b610463600480360381019061045e9190613015565b611547565b005b34801561047157600080fd5b5061048c60048036038101906104879190613015565b61178c565b6040516104999190613673565b60405180910390f35b6104bc60048036038101906104b7919061303e565b6118de565b005b3480156104ca57600080fd5b506104e560048036038101906104e09190613015565b611ad3565b6040516104f6959493929190613970565b60405180910390f35b34801561050b57600080fd5b5061052660048036038101906105219190612df1565b611b56565b6040516105339190613658565b60405180910390f35b60007f80ac58cd000000000000000000000000000000000000000000000000000000007bffffffffffffffffffffffffffffffffffffffffffffffffffffffff1916827bffffffffffffffffffffffffffffffffffffffffffffffffffffffff1916148061060757507f5b5e139f000000000000000000000000000000000000000000000000000000007bffffffffffffffffffffffffffffffffffffffffffffffffffffffff1916827bffffffffffffffffffffffffffffffffffffffffffffffffffffffff1916145b80610617575061061682611bea565b5b9050919050565b60606000805461062d90613c49565b80601f016020809104026020016040519081016040528092919081815260200182805461065990613c49565b80156106a65780601f1061067b576101008083540402835291602001916106a6565b820191906000526020600020905b81548152906001019060200180831161068957829003601f168201915b5050505050905090565b60006106bb82611c54565b6106fa576040517f08c379a00000000000000000000000000000000000000000000000000000000081526004016106f190613875565b60405180910390fd5b6004600083815260200190815260200160002060009054906101000a900473ffffffffffffffffffffffffffffffffffffffff169050919050565b6000610740826111f7565b90508073ffffffffffffffffffffffffffffffffffffffff168373ffffffffffffffffffffffffffffffffffffffff1614156107b1576040517f08c379a00000000000000000000000000000000000000000000000000000000081526004016107a8906138d5565b60405180910390fd5b8073ffffffffffffffffffffffffffffffffffffffff166107d0611cc0565b73ffffffffffffffffffffffffffffffffffffffff1614806107ff57506107fe816107f9611cc0565b611b56565b5b61083e576040517f08c379a000000000000000000000000000000000000000000000000000000000815260040161083590613795565b60405180910390fd5b6108488383611cc8565b505050565b6060600061085b6007611d81565b905060006108696008611d81565b826108749190613b4d565b90506000808267ffffffffffffffff8111156108b9577f4e487b7100000000000000000000000000000000000000000000000000000000600052604160045260246000fd5b6040519080825280602002602001820160405280156108f257816020015b6108df612b8f565b8152602001906001900390816108d75790505b50905060005b84811015610aee573073ffffffffffffffffffffffffffffffffffffffff16600b60006001846109289190613ac6565b815260200190815260200160002060020160009054906101000a900473ffffffffffffffffffffffffffffffffffffffff1673ffffffffffffffffffffffffffffffffffffffff161415610adb5760006001826109859190613ac6565b90506000600b60008381526020019081526020016000209050806040518060a0016040529081600082015481526020016001820160009054906101000a900473ffffffffffffffffffffffffffffffffffffffff1673ffffffffffffffffffffffffffffffffffffffff1673ffffffffffffffffffffffffffffffffffffffff1681526020016002820160009054906101000a900473ffffffffffffffffffffffffffffffffffffffff1673ffffffffffffffffffffffffffffffffffffffff1673ffffffffffffffffffffffffffffffffffffffff168152602001600382015481526020016004820160009054906101000a900460ff161515151581525050848681518110610abe577f4e487b7100000000000000000000000000000000000000000000000000000000600052603260045260246000fd5b6020026020010181905250600185610ad69190613ac6565b945050505b8080610ae690613cac565b9150506108f8565b508094505050505090565b6000600954905090565b60606000610b116007611d81565b905060008060005b83811015610bba573373ffffffffffffffffffffffffffffffffffffffff16600b6000600184610b499190613ac6565b815260200190815260200160002060020160009054906101000a900473ffffffffffffffffffffffffffffffffffffffff1673ffffffffffffffffffffffffffffffffffffffff161415610ba757600183610ba49190613ac6565b92505b8080610bb290613cac565b915050610b19565b5060008267ffffffffffffffff811115610bfd577f4e487b7100000000000000000000000000000000000000000000000000000000600052604160045260246000fd5b604051908082528060200260200182016040528015610c3657816020015b610c23612b8f565b815260200190600190039081610c1b5790505b50905060005b84811015610e32573373ffffffffffffffffffffffffffffffffffffffff16600b6000600184610c6c9190613ac6565b815260200190815260200160002060020160009054906101000a900473ffffffffffffffffffffffffffffffffffffffff1673ffffffffffffffffffffffffffffffffffffffff161415610e1f576000600182610cc99190613ac6565b90506000600b60008381526020019081526020016000209050806040518060a0016040529081600082015481526020016001820160009054906101000a900473ffffffffffffffffffffffffffffffffffffffff1673ffffffffffffffffffffffffffffffffffffffff1673ffffffffffffffffffffffffffffffffffffffff1681526020016002820160009054906101000a900473ffffffffffffffffffffffffffffffffffffffff1673ffffffffffffffffffffffffffffffffffffffff1673ffffffffffffffffffffffffffffffffffffffff168152602001600382015481526020016004820160009054906101000a900460ff161515151581525050848681518110610e02577f4e487b7100000000000000000000000000000000000000000000000000000000600052603260045260246000fd5b6020026020010181905250600185610e1a9190613ac6565b945050505b8080610e2a90613cac565b915050610c3c565b508094505050505090565b610e4e610e48611cc0565b82611d8f565b610e8d576040517f08c379a0000000000000000000000000000000000000000000000000000000008152600401610e8490613915565b60405180910390fd5b610e98838383611e6d565b505050565b610eb8838383604051806020016040528060008152506114e5565b505050565b60606000610ecb6007611d81565b905060008060005b83811015610f74573373ffffffffffffffffffffffffffffffffffffffff16600b6000600184610f039190613ac6565b815260200190815260200160002060010160009054906101000a900473ffffffffffffffffffffffffffffffffffffffff1673ffffffffffffffffffffffffffffffffffffffff161415610f6157600183610f5e9190613ac6565b92505b8080610f6c90613cac565b915050610ed3565b5060008267ffffffffffffffff811115610fb7577f4e487b7100000000000000000000000000000000000000000000000000000000600052604160045260246000fd5b604051908082528060200260200182016040528015610ff057816020015b610fdd612b8f565b815260200190600190039081610fd55790505b50905060005b848110156111ec573373ffffffffffffffffffffffffffffffffffffffff16600b60006001846110269190613ac6565b815260200190815260200160002060010160009054906101000a900473ffffffffffffffffffffffffffffffffffffffff1673ffffffffffffffffffffffffffffffffffffffff1614156111d95760006001826110839190613ac6565b90506000600b60008381526020019081526020016000209050806040518060a0016040529081600082015481526020016001820160009054906101000a900473ffffffffffffffffffffffffffffffffffffffff1673ffffffffffffffffffffffffffffffffffffffff1673ffffffffffffffffffffffffffffffffffffffff1681526020016002820160009054906101000a900473ffffffffffffffffffffffffffffffffffffffff1673ffffffffffffffffffffffffffffffffffffffff1673ffffffffffffffffffffffffffffffffffffffff168152602001600382015481526020016004820160009054906101000a900460ff1615151515815250508486815181106111bc577f4e487b7100000000000000000000000000000000000000000000000000000000600052603260045260246000fd5b60200260200101819052506001856111d49190613ac6565b945050505b80806111e490613cac565b915050610ff6565b508094505050505090565b6000806002600084815260200190815260200160002060009054906101000a900473ffffffffffffffffffffffffffffffffffffffff169050600073ffffffffffffffffffffffffffffffffffffffff168173ffffffffffffffffffffffffffffffffffffffff1614156112a0576040517f08c379a0000000000000000000000000000000000000000000000000000000008152600401611297906137d5565b60405180910390fd5b80915050919050565b60008073ffffffffffffffffffffffffffffffffffffffff168273ffffffffffffffffffffffffffffffffffffffff16141561131a576040517f08c379a0000000000000000000000000000000000000000000000000000000008152600401611311906137b5565b60405180910390fd5b600360008373ffffffffffffffffffffffffffffffffffffffff1673ffffffffffffffffffffffffffffffffffffffff168152602001908152602001600020549050919050565b600061136d60076120d4565b60006113796007611d81565b905061138533826120ea565b61138f81856122c4565b6113998184612338565b8091505092915050565b6060600180546113b290613c49565b80601f01602080910402602001604051908101604052809291908181526020018280546113de90613c49565b801561142b5780601f106114005761010080835404028352916020019161142b565b820191906000526020600020905b81548152906001019060200180831161140e57829003601f168201915b5050505050905090565b611447611440611cc0565b838361253b565b5050565b600a60009054906101000a900473ffffffffffffffffffffffffffffffffffffffff1673ffffffffffffffffffffffffffffffffffffffff163373ffffffffffffffffffffffffffffffffffffffff16146114db576040517f08c379a00000000000000000000000000000000000000000000000000000000081526004016114d290613755565b60405180910390fd5b8060098190555050565b6114f66114f0611cc0565b83611d8f565b611535576040517f08c379a000000000000000000000000000000000000000000000000000000000815260040161152c90613915565b60405180910390fd5b611541848484846126a8565b50505050565b6000600b60008381526020019081526020016000206003015490508034146115a4576040517f08c379a000000000000000000000000000000000000000000000000000000000815260040161159b90613815565b60405180910390fd5b33600b600084815260200190815260200160002060020160006101000a81548173ffffffffffffffffffffffffffffffffffffffff021916908373ffffffffffffffffffffffffffffffffffffffff1602179055506001600b600084815260200190815260200160002060040160006101000a81548160ff0219169083151502179055506000600b600084815260200190815260200160002060010160006101000a81548173ffffffffffffffffffffffffffffffffffffffff021916908373ffffffffffffffffffffffffffffffffffffffff16021790555061168860086120d4565b611693303384611e6d565b600a60009054906101000a900473ffffffffffffffffffffffffffffffffffffffff1673ffffffffffffffffffffffffffffffffffffffff166108fc6009549081150290604051600060405180830381858888f193505050501580156116fd573d6000803e3d6000fd5b50600b600083815260200190815260200160002060010160009054906101000a900473ffffffffffffffffffffffffffffffffffffffff1673ffffffffffffffffffffffffffffffffffffffff166108fc6009543461175c9190613b4d565b9081150290604051600060405180830381858888f19350505050158015611787573d6000803e3d6000fd5b505050565b606061179782611c54565b6117d6576040517f08c379a00000000000000000000000000000000000000000000000000000000081526004016117cd90613855565b60405180910390fd5b60006006600084815260200190815260200160002080546117f690613c49565b80601f016020809104026020016040519081016040528092919081815260200182805461182290613c49565b801561186f5780601f106118445761010080835404028352916020019161186f565b820191906000526020600020905b81548152906001019060200180831161185257829003601f168201915b505050505090506000611880612704565b90506000815114156118965781925050506118d9565b6000825111156118cb5780826040516020016118b3929190613566565b604051602081830303815290604052925050506118d9565b6118d48461271b565b925050505b919050565b3373ffffffffffffffffffffffffffffffffffffffff16600b600084815260200190815260200160002060020160009054906101000a900473ffffffffffffffffffffffffffffffffffffffff1673ffffffffffffffffffffffffffffffffffffffff1614611982576040517f08c379a000000000000000000000000000000000000000000000000000000000815260040161197990613935565b60405180910390fd5b60095434146119c6576040517f08c379a00000000000000000000000000000000000000000000000000000000081526004016119bd906138f5565b60405180910390fd5b6000600b600084815260200190815260200160002060040160006101000a81548160ff02191690831515021790555080600b60008481526020019081526020016000206003018190555033600b600084815260200190815260200160002060010160006101000a81548173ffffffffffffffffffffffffffffffffffffffff021916908373ffffffffffffffffffffffffffffffffffffffff16021790555030600b600084815260200190815260200160002060020160006101000a81548173ffffffffffffffffffffffffffffffffffffffff021916908373ffffffffffffffffffffffffffffffffffffffff160217905550611ac460086127c2565b611acf333084611e6d565b5050565b600b6020528060005260406000206000915090508060000154908060010160009054906101000a900473ffffffffffffffffffffffffffffffffffffffff16908060020160009054906101000a900473ffffffffffffffffffffffffffffffffffffffff16908060030154908060040160009054906101000a900460ff16905085565b6000600560008473ffffffffffffffffffffffffffffffffffffffff1673ffffffffffffffffffffffffffffffffffffffff16815260200190815260200160002060008373ffffffffffffffffffffffffffffffffffffffff1673ffffffffffffffffffffffffffffffffffffffff16815260200190815260200160002060009054906101000a900460ff16905092915050565b60007f01ffc9a7000000000000000000000000000000000000000000000000000000007bffffffffffffffffffffffffffffffffffffffffffffffffffffffff1916827bffffffffffffffffffffffffffffffffffffffffffffffffffffffff1916149050919050565b60008073ffffffffffffffffffffffffffffffffffffffff166002600084815260200190815260200160002060009054906101000a900473ffffffffffffffffffffffffffffffffffffffff1673ffffffffffffffffffffffffffffffffffffffff1614159050919050565b600033905090565b816004600083815260200190815260200160002060006101000a81548173ffffffffffffffffffffffffffffffffffffffff021916908373ffffffffffffffffffffffffffffffffffffffff160217905550808273ffffffffffffffffffffffffffffffffffffffff16611d3b836111f7565b73ffffffffffffffffffffffffffffffffffffffff167f8c5be1e5ebec7d5bd14f71427d1e84f3dd0314c0f7b2291e5b200ac8c7c3b92560405160405180910390a45050565b600081600001549050919050565b6000611d9a82611c54565b611dd9576040517f08c379a0000000000000000000000000000000000000000000000000000000008152600401611dd090613775565b60405180910390fd5b6000611de4836111f7565b90508073ffffffffffffffffffffffffffffffffffffffff168473ffffffffffffffffffffffffffffffffffffffff161480611e5357508373ffffffffffffffffffffffffffffffffffffffff16611e3b846106b0565b73ffffffffffffffffffffffffffffffffffffffff16145b80611e645750611e638185611b56565b5b91505092915050565b8273ffffffffffffffffffffffffffffffffffffffff16611e8d826111f7565b73ffffffffffffffffffffffffffffffffffffffff1614611ee3576040517f08c379a0000000000000000000000000000000000000000000000000000000008152600401611eda906136d5565b60405180910390fd5b600073ffffffffffffffffffffffffffffffffffffffff168273ffffffffffffffffffffffffffffffffffffffff161415611f53576040517f08c379a0000000000000000000000000000000000000000000000000000000008152600401611f4a90613715565b60405180910390fd5b611f5e83838361281e565b611f69600082611cc8565b6001600360008573ffffffffffffffffffffffffffffffffffffffff1673ffffffffffffffffffffffffffffffffffffffff1681526020019081526020016000206000828254611fb99190613b4d565b925050819055506001600360008473ffffffffffffffffffffffffffffffffffffffff1673ffffffffffffffffffffffffffffffffffffffff16815260200190815260200160002060008282546120109190613ac6565b92505081905550816002600083815260200190815260200160002060006101000a81548173ffffffffffffffffffffffffffffffffffffffff021916908373ffffffffffffffffffffffffffffffffffffffff160217905550808273ffffffffffffffffffffffffffffffffffffffff168473ffffffffffffffffffffffffffffffffffffffff167fddf252ad1be2c89b69c2b068fc378daa952ba7f163c4a11628f55a4df523b3ef60405160405180910390a46120cf838383612823565b505050565b6001816000016000828254019250508190555050565b600073ffffffffffffffffffffffffffffffffffffffff168273ffffffffffffffffffffffffffffffffffffffff16141561215a576040517f08c379a000000000000000000000000000000000000000000000000000000000815260040161215190613835565b60405180910390fd5b61216381611c54565b156121a3576040517f08c379a000000000000000000000000000000000000000000000000000000000815260040161219a906136f5565b60405180910390fd5b6121af6000838361281e565b6001600360008473ffffffffffffffffffffffffffffffffffffffff1673ffffffffffffffffffffffffffffffffffffffff16815260200190815260200160002060008282546121ff9190613ac6565b92505081905550816002600083815260200190815260200160002060006101000a81548173ffffffffffffffffffffffffffffffffffffffff021916908373ffffffffffffffffffffffffffffffffffffffff160217905550808273ffffffffffffffffffffffffffffffffffffffff16600073ffffffffffffffffffffffffffffffffffffffff167fddf252ad1be2c89b69c2b068fc378daa952ba7f163c4a11628f55a4df523b3ef60405160405180910390a46122c060008383612823565b5050565b6122cd82611c54565b61230c576040517f08c379a0000000000000000000000000000000000000000000000000000000008152600401612303906137f5565b60405180910390fd5b80600660008481526020019081526020016000209080519060200190612333929190612bec565b505050565b6000811161237b576040517f08c379a0000000000000000000000000000000000000000000000000000000008152600401612372906138b5565b60405180910390fd5b34600954146123bf576040517f08c379a00000000000000000000000000000000000000000000000000000000081526004016123b6906138f5565b60405180910390fd5b6040518060a001604052808381526020013373ffffffffffffffffffffffffffffffffffffffff1681526020013073ffffffffffffffffffffffffffffffffffffffff16815260200182815260200160001515815250600b60008481526020019081526020016000206000820151816000015560208201518160010160006101000a81548173ffffffffffffffffffffffffffffffffffffffff021916908373ffffffffffffffffffffffffffffffffffffffff16021790555060408201518160020160006101000a81548173ffffffffffffffffffffffffffffffffffffffff021916908373ffffffffffffffffffffffffffffffffffffffff1602179055506060820151816003015560808201518160040160006101000a81548160ff0219169083151502179055509050506124f8333084611e6d565b817fb640004f1d14576d0c209e240cad0410e0d8c0c33a09375861fbadae2588a98d333084600060405161252f94939291906135a5565b60405180910390a25050565b8173ffffffffffffffffffffffffffffffffffffffff168373ffffffffffffffffffffffffffffffffffffffff1614156125aa576040517f08c379a00000000000000000000000000000000000000000000000000000000081526004016125a190613735565b60405180910390fd5b80600560008573ffffffffffffffffffffffffffffffffffffffff1673ffffffffffffffffffffffffffffffffffffffff16815260200190815260200160002060008473ffffffffffffffffffffffffffffffffffffffff1673ffffffffffffffffffffffffffffffffffffffff16815260200190815260200160002060006101000a81548160ff0219169083151502179055508173ffffffffffffffffffffffffffffffffffffffff168373ffffffffffffffffffffffffffffffffffffffff167f17307eab39ab6107e8899845ad3d59bd9653f200f220920489ca2b5937696c318360405161269b9190613658565b60405180910390a3505050565b6126b3848484611e6d565b6126bf84848484612828565b6126fe576040517f08c379a00000000000000000000000000000000000000000000000000000000081526004016126f5906136b5565b60405180910390fd5b50505050565b606060405180602001604052806000815250905090565b606061272682611c54565b612765576040517f08c379a000000000000000000000000000000000000000000000000000000000815260040161275c90613895565b60405180910390fd5b600061276f612704565b9050600081511161278f57604051806020016040528060008152506127ba565b80612799846129bf565b6040516020016127aa929190613566565b6040516020818303038152906040525b915050919050565b6000816000015490506000811161280e576040517f08c379a000000000000000000000000000000000000000000000000000000000815260040161280590613695565b60405180910390fd5b6001810382600001819055505050565b505050565b505050565b60006128498473ffffffffffffffffffffffffffffffffffffffff16612b6c565b156129b2578373ffffffffffffffffffffffffffffffffffffffff1663150b7a02612872611cc0565b8786866040518563ffffffff1660e01b815260040161289494939291906135ea565b602060405180830381600087803b1580156128ae57600080fd5b505af19250505080156128df57506040513d601f19601f820116820180604052508101906128dc9190612f98565b60015b612962573d806000811461290f576040519150601f19603f3d011682016040523d82523d6000602084013e612914565b606091505b5060008151141561295a576040517f08c379a0000000000000000000000000000000000000000000000000000000008152600401612951906136b5565b60405180910390fd5b805181602001fd5b63150b7a0260e01b7bffffffffffffffffffffffffffffffffffffffffffffffffffffffff1916817bffffffffffffffffffffffffffffffffffffffffffffffffffffffff1916149150506129b7565b600190505b949350505050565b60606000821415612a07576040518060400160405280600181526020017f30000000000000000000000000000000000000000000000000000000000000008152509050612b67565b600082905060005b60008214612a39578080612a2290613cac565b915050600a82612a329190613b1c565b9150612a0f565b60008167ffffffffffffffff811115612a7b577f4e487b7100000000000000000000000000000000000000000000000000000000600052604160045260246000fd5b6040519080825280601f01601f191660200182016040528015612aad5781602001600182028036833780820191505090505b5090505b60008514612b6057600182612ac69190613b4d565b9150600a85612ad59190613cf5565b6030612ae19190613ac6565b60f81b818381518110612b1d577f4e487b7100000000000000000000000000000000000000000000000000000000600052603260045260246000fd5b60200101907effffffffffffffffffffffffffffffffffffffffffffffffffffffffffffff1916908160001a905350600a85612b599190613b1c565b9450612ab1565b8093505050505b919050565b6000808273ffffffffffffffffffffffffffffffffffffffff163b119050919050565b6040518060a0016040528060008152602001600073ffffffffffffffffffffffffffffffffffffffff168152602001600073ffffffffffffffffffffffffffffffffffffffff168152602001600081526020016000151581525090565b828054612bf890613c49565b90600052602060002090601f016020900481019282612c1a5760008555612c61565b82601f10612c3357805160ff1916838001178555612c61565b82800160010185558215612c61579182015b82811115612c60578251825591602001919060010190612c45565b5b509050612c6e9190612c72565b5090565b5b80821115612c8b576000816000905550600101612c73565b5090565b6000612ca2612c9d846139e8565b6139c3565b905082815260208101848484011115612cba57600080fd5b612cc5848285613c07565b509392505050565b6000612ce0612cdb84613a19565b6139c3565b905082815260208101848484011115612cf857600080fd5b612d03848285613c07565b509392505050565b600081359050612d1a816143d9565b92915050565b600081359050612d2f816143f0565b92915050565b600081359050612d4481614407565b92915050565b600081519050612d5981614407565b92915050565b600082601f830112612d7057600080fd5b8135612d80848260208601612c8f565b91505092915050565b600082601f830112612d9a57600080fd5b8135612daa848260208601612ccd565b91505092915050565b600081359050612dc28161441e565b92915050565b600060208284031215612dda57600080fd5b6000612de884828501612d0b565b91505092915050565b60008060408385031215612e0457600080fd5b6000612e1285828601612d0b565b9250506020612e2385828601612d0b565b9150509250929050565b600080600060608486031215612e4257600080fd5b6000612e5086828701612d0b565b9350506020612e6186828701612d0b565b9250506040612e7286828701612db3565b9150509250925092565b60008060008060808587031215612e9257600080fd5b6000612ea087828801612d0b565b9450506020612eb187828801612d0b565b9350506040612ec287828801612db3565b925050606085013567ffffffffffffffff811115612edf57600080fd5b612eeb87828801612d5f565b91505092959194509250565b60008060408385031215612f0a57600080fd5b6000612f1885828601612d0b565b9250506020612f2985828601612d20565b9150509250929050565b60008060408385031215612f4657600080fd5b6000612f5485828601612d0b565b9250506020612f6585828601612db3565b9150509250929050565b600060208284031215612f8157600080fd5b6000612f8f84828501612d35565b91505092915050565b600060208284031215612faa57600080fd5b6000612fb884828501612d4a565b91505092915050565b60008060408385031215612fd457600080fd5b600083013567ffffffffffffffff811115612fee57600080fd5b612ffa85828601612d89565b925050602061300b85828601612db3565b9150509250929050565b60006020828403121561302757600080fd5b600061303584828501612db3565b91505092915050565b6000806040838503121561305157600080fd5b600061305f85828601612db3565b925050602061307085828601612db3565b9150509250929050565b600061308683836134e0565b60a08301905092915050565b61309b81613b93565b82525050565b6130aa81613b93565b82525050565b6130b981613b81565b82525050565b60006130ca82613a5a565b6130d48185613a88565b93506130df83613a4a565b8060005b838110156131105781516130f7888261307a565b975061310283613a7b565b9250506001810190506130e3565b5085935050505092915050565b61312681613ba5565b82525050565b61313581613ba5565b82525050565b600061314682613a65565b6131508185613a99565b9350613160818560208601613c16565b61316981613de2565b840191505092915050565b600061317f82613a70565b6131898185613aaa565b9350613199818560208601613c16565b6131a281613de2565b840191505092915050565b60006131b882613a70565b6131c28185613abb565b93506131d2818560208601613c16565b80840191505092915050565b60006131eb601b83613aaa565b91506131f682613df3565b602082019050919050565b600061320e603283613aaa565b915061321982613e1c565b604082019050919050565b6000613231602583613aaa565b915061323c82613e6b565b604082019050919050565b6000613254601c83613aaa565b915061325f82613eba565b602082019050919050565b6000613277602483613aaa565b915061328282613ee3565b604082019050919050565b600061329a601983613aaa565b91506132a582613f32565b602082019050919050565b60006132bd601583613aaa565b91506132c882613f5b565b602082019050919050565b60006132e0602c83613aaa565b91506132eb82613f84565b604082019050919050565b6000613303603883613aaa565b915061330e82613fd3565b604082019050919050565b6000613326602a83613aaa565b915061333182614022565b604082019050919050565b6000613349602983613aaa565b915061335482614071565b604082019050919050565b600061336c602e83613aaa565b9150613377826140c0565b604082019050919050565b600061338f604083613aaa565b915061339a8261410f565b604082019050919050565b60006133b2602083613aaa565b91506133bd8261415e565b602082019050919050565b60006133d5603183613aaa565b91506133e082614187565b604082019050919050565b60006133f8602c83613aaa565b9150613403826141d6565b604082019050919050565b600061341b602f83613aaa565b915061342682614225565b604082019050919050565b600061343e601883613aaa565b915061344982614274565b602082019050919050565b6000613461602183613aaa565b915061346c8261429d565b604082019050919050565b6000613484602483613aaa565b915061348f826142ec565b604082019050919050565b60006134a7603183613aaa565b91506134b28261433b565b604082019050919050565b60006134ca602383613aaa565b91506134d58261438a565b604082019050919050565b60a0820160008201516134f66000850182613548565b5060208201516135096020850182613092565b50604082015161351c6040850182613092565b50606082015161352f6060850182613548565b506080820151613542608085018261311d565b50505050565b61355181613bfd565b82525050565b61356081613bfd565b82525050565b600061357282856131ad565b915061357e82846131ad565b91508190509392505050565b600060208201905061359f60008301846130b0565b92915050565b60006080820190506135ba60008301876130b0565b6135c760208301866130b0565b6135d46040830185613557565b6135e1606083018461312c565b95945050505050565b60006080820190506135ff60008301876130b0565b61360c60208301866130b0565b6136196040830185613557565b818103606083015261362b818461313b565b905095945050505050565b6000602082019050818103600083015261365081846130bf565b905092915050565b600060208201905061366d600083018461312c565b92915050565b6000602082019050818103600083015261368d8184613174565b905092915050565b600060208201905081810360008301526136ae816131de565b9050919050565b600060208201905081810360008301526136ce81613201565b9050919050565b600060208201905081810360008301526136ee81613224565b9050919050565b6000602082019050818103600083015261370e81613247565b9050919050565b6000602082019050818103600083015261372e8161326a565b9050919050565b6000602082019050818103600083015261374e8161328d565b9050919050565b6000602082019050818103600083015261376e816132b0565b9050919050565b6000602082019050818103600083015261378e816132d3565b9050919050565b600060208201905081810360008301526137ae816132f6565b9050919050565b600060208201905081810360008301526137ce81613319565b9050919050565b600060208201905081810360008301526137ee8161333c565b9050919050565b6000602082019050818103600083015261380e8161335f565b9050919050565b6000602082019050818103600083015261382e81613382565b9050919050565b6000602082019050818103600083015261384e816133a5565b9050919050565b6000602082019050818103600083015261386e816133c8565b9050919050565b6000602082019050818103600083015261388e816133eb565b9050919050565b600060208201905081810360008301526138ae8161340e565b9050919050565b600060208201905081810360008301526138ce81613431565b9050919050565b600060208201905081810360008301526138ee81613454565b9050919050565b6000602082019050818103600083015261390e81613477565b9050919050565b6000602082019050818103600083015261392e8161349a565b9050919050565b6000602082019050818103600083015261394e816134bd565b9050919050565b600060208201905061396a6000830184613557565b92915050565b600060a0820190506139856000830188613557565b61399260208301876130a1565b61399f60408301866130a1565b6139ac6060830185613557565b6139b9608083018461312c565b9695505050505050565b60006139cd6139de565b90506139d98282613c7b565b919050565b6000604051905090565b600067ffffffffffffffff821115613a0357613a02613db3565b5b613a0c82613de2565b9050602081019050919050565b600067ffffffffffffffff821115613a3457613a33613db3565b5b613a3d82613de2565b9050602081019050919050565b6000819050602082019050919050565b600081519050919050565b600081519050919050565b600081519050919050565b6000602082019050919050565b600082825260208201905092915050565b600082825260208201905092915050565b600082825260208201905092915050565b600081905092915050565b6000613ad182613bfd565b9150613adc83613bfd565b9250827fffffffffffffffffffffffffffffffffffffffffffffffffffffffffffffffff03821115613b1157613b10613d26565b5b828201905092915050565b6000613b2782613bfd565b9150613b3283613bfd565b925082613b4257613b41613d55565b5b828204905092915050565b6000613b5882613bfd565b9150613b6383613bfd565b925082821015613b7657613b75613d26565b5b828203905092915050565b6000613b8c82613bdd565b9050919050565b6000613b9e82613bdd565b9050919050565b60008115159050919050565b60007fffffffff0000000000000000000000000000000000000000000000000000000082169050919050565b600073ffffffffffffffffffffffffffffffffffffffff82169050919050565b6000819050919050565b82818337600083830152505050565b60005b83811015613c34578082015181840152602081019050613c19565b83811115613c43576000848401525b50505050565b60006002820490506001821680613c6157607f821691505b60208210811415613c7557613c74613d84565b5b50919050565b613c8482613de2565b810181811067ffffffffffffffff82111715613ca357613ca2613db3565b5b80604052505050565b6000613cb782613bfd565b91507fffffffffffffffffffffffffffffffffffffffffffffffffffffffffffffffff821415613cea57613ce9613d26565b5b600182019050919050565b6000613d0082613bfd565b9150613d0b83613bfd565b925082613d1b57613d1a613d55565b5b828206905092915050565b7f4e487b7100000000000000000000000000000000000000000000000000000000600052601160045260246000fd5b7f4e487b7100000000000000000000000000000000000000000000000000000000600052601260045260246000fd5b7f4e487b7100000000000000000000000000000000000000000000000000000000600052602260045260246000fd5b7f4e487b7100000000000000000000000000000000000000000000000000000000600052604160045260246000fd5b6000601f19601f8301169050919050565b7f436f756e7465723a2064656372656d656e74206f766572666c6f770000000000600082015250565b7f4552433732313a207472616e7366657220746f206e6f6e20455243373231526560008201527f63656976657220696d706c656d656e7465720000000000000000000000000000602082015250565b7f4552433732313a207472616e736665722066726f6d20696e636f72726563742060008201527f6f776e6572000000000000000000000000000000000000000000000000000000602082015250565b7f4552433732313a20746f6b656e20616c7265616479206d696e74656400000000600082015250565b7f4552433732313a207472616e7366657220746f20746865207a65726f2061646460008201527f7265737300000000000000000000000000000000000000000000000000000000602082015250565b7f4552433732313a20617070726f766520746f2063616c6c657200000000000000600082015250565b7f596f7520617265206e6f7420746865206f776e65720000000000000000000000600082015250565b7f4552433732313a206f70657261746f7220717565727920666f72206e6f6e657860008201527f697374656e7420746f6b656e0000000000000000000000000000000000000000602082015250565b7f4552433732313a20617070726f76652063616c6c6572206973206e6f74206f7760008201527f6e6572206e6f7220617070726f76656420666f7220616c6c0000000000000000602082015250565b7f4552433732313a2062616c616e636520717565727920666f7220746865207a6560008201527f726f206164647265737300000000000000000000000000000000000000000000602082015250565b7f4552433732313a206f776e657220717565727920666f72206e6f6e657869737460008201527f656e7420746f6b656e0000000000000000000000000000000000000000000000602082015250565b7f45524337323155524953746f726167653a2055524920736574206f66206e6f6e60008201527f6578697374656e7420746f6b656e000000000000000000000000000000000000602082015250565b7f506c65617365207375626d6974207468652061736b696e67207072696365206960008201527f6e206f7264657220746f20636f6d706c65746520746865207075726368617365602082015250565b7f4552433732313a206d696e7420746f20746865207a65726f2061646472657373600082015250565b7f45524337323155524953746f726167653a2055524920717565727920666f722060008201527f6e6f6e6578697374656e7420746f6b656e000000000000000000000000000000602082015250565b7f4552433732313a20617070726f76656420717565727920666f72206e6f6e657860008201527f697374656e7420746f6b656e0000000000000000000000000000000000000000602082015250565b7f4552433732314d657461646174613a2055524920717565727920666f72206e6f60008201527f6e6578697374656e7420746f6b656e0000000000000000000000000000000000602082015250565b7f5072696365206d757374206265206174206c6561737420310000000000000000600082015250565b7f4552433732313a20617070726f76616c20746f2063757272656e74206f776e6560008201527f7200000000000000000000000000000000000000000000000000000000000000602082015250565b7f5072696365206d75737420626520657175616c20746f206c697374696e67207060008201527f7269636500000000000000000000000000000000000000000000000000000000602082015250565b7f4552433732313a207472616e736665722063616c6c6572206973206e6f74206f60008201527f776e6572206e6f7220617070726f766564000000000000000000000000000000602082015250565b7f596f7520617265206e6f7420746865206f776e6572206f66207468697320746f60008201527f6b656e0000000000000000000000000000000000000000000000000000000000602082015250565b6143e281613b81565b81146143ed57600080fd5b50565b6143f981613ba5565b811461440457600080fd5b50565b61441081613bb1565b811461441b57600080fd5b50565b61442781613bfd565b811461443257600080fd5b5056fea26469706673582212202e323ea047b80837f3c09fdf2a407191f181985695044bd702ae7fc8e507fff664736f6c63430008040033",
  "linkReferences": {},
  "deployedLinkReferences": {}
}